:100000000C9434000C9451000C9451000C94510049
:100010000C9451000C9451000C9451000C9451001C
:100020000C9451000C9451000C9451000C9451000C
:100030000C9451000C9451000C9451000C945100FC
:100040000C9451000C9451000C9451000C945100EC
:100050000C9451000C9451000C9451000C945100DC
:100060000C9451000C94510011241FBECFEFD8E026
:10007000DEBFCDBF11E0A0E0B1E0E6E6F9E002C0EE
:1000800005900D92A237B107D9F721E0A2E7B1E0C0
:1000900001C01D92A837B207E1F70E9408010C9435
:1000A000B1040C9400001092B90088E48093B80069
:1000B000089594EA9093BC00ECEBF0E090819923D2
:1000C000ECF78093BB0084E88093BC00ECEBF0E09D
:1000D00080818823ECF79091B900987F81E0983176
:1000E00009F080E008958093BB0084E88093BC0011
:1000F000ECEBF0E080818823ECF79091B900987FD9
:1001000081E0983209F480E0089584E88093BC008F
:10011000ECEBF0E080818823ECF78091BB00089540
:10012000CF93DF93C82FD62F0E9459008D2F0E94A6
:10013000730081E08C0F0E9459000E94850094E9B1
:100140009093BC00DF91CF910895EF92FF920F93AF
:100150001F93CF93DF93EC017B018A0162E088E675
:100160000E949000888361E088E60E949000F70179
:10017000808360E088E60E949000F8018083888197
:1001800086FF03C08F71888302C08F738883DF91DD
:10019000CF911F910F91FF90EF900895EF92FF92F2
:1001A0000F931F93CF93DF937C018B01EA0165E0EE
:1001B00088E60E949000F701808364E088E60E9450
:1001C0009000F801808366E088E60E9490008883B2
:1001D000DF91CF911F910F91FF90EF900895CF93F2
:1001E00061E188E60E949000C82F62E188E60E94E3
:1001F0009000482F42954695469543702C2F30E04D
:10020000C901880F991F880F991F842BCF910895DA
:10021000CF93DF9300D000D000D0CDB7DEB787E614
:1002200090E00E948D018EE091E0909375018093A3
:10023000740180E091E0909373018093720187B123
:1002400017B80E94530088E60E94590081110DC022
:1002500088E60E945900811108C08CE191E09F93CB
:100260008F930E94EE010F900F900F2EF2E7AF2EAA
:10027000F1E0BF2EF02D0F2EFEE2CF2EF1E0DF2EAB
:10028000F02D0F2EF4E4EF2EF1E0FF2EF02D0AE515
:1002900011E0F501808191810E94B001AE014D5FB6
:1002A0005F4FBE016E5F7F4FCE0101960E94A50099
:1002B000AE014A5F5F4FBE016B5F7F4FCE01049678
:1002C0000E94CE000E94EF004C018B811F928F9301
:1002D0008A811F928F9389811F928F93DF92CF9291
:1002E0000E94EE018E811F928F938D811F928F93BA
:1002F0008C811F928F93FF92EF920E94EE01C401B6
:1003000099279F938F931F930F930E94EE010FB62F
:10031000F894DEBF0FBECDBFBCCF9093C5008093D5
:10032000C4008EE08093C20088E18093C1000895EC
:10033000CF93C82F8A3019F48DE00E949801E0EC29
:10034000F0E0908195FFFDCFC093C600CF91089556
:10035000E0ECF0E080818823ECF78091C6000895FE
:10036000CF93DF93EC012B8120FF33C026FF0AC01F
:100370002F7B2B838E819F8101969F838E838A8121
:1003800090E029C022FF0FC0E881F9818081992780
:1003900087FD9095009719F420622B831AC031963F
:1003A000F983E8830EC0EA85FB85099597FF09C0AC
:1003B0002B81019611F480E101C080E2822B8B83B6
:1003C00008C02E813F812F5F3F4F3F832E839927A7
:1003D00002C08FEF9FEFDF91CF910895A0E0B0E0D2
:1003E000E4EFF1E00C948A04FE013596619171917D
:1003F000AF0180917401909175010E940202E2E0C8
:100400000C94A604ACE0B0E0E8E0F2E00C947A04CE
:100410007C016B018A01FC0117821682838181FFB6
:10042000BDC1CE0101964C01F7019381F60193FD08
:10043000859193FF81916F01882309F4ABC18532C7
:1004400039F493FD859193FF81916F01853229F4F1
:10045000B70190E00E94EA03E7CF512C312C20E055
:100460002032A0F48B3269F030F4803259F08332BC
:1004700069F420612CC08D3239F0803339F4216069
:1004800026C02260246023C0286021C027FD27C029
:1004900030ED380F3A3078F426FF06C0FAE05F9E60
:1004A000300D1124532E13C08AE0389E300D1124D4
:1004B000332E20620CC08E3221F426FD6BC12064E5
:1004C00006C08C3611F4206802C0883641F4F6016B
:1004D00093FD859193FF81916F018111C1CF982F79
:1004E0009F7D9554933028F40C5F1F4FFFE3F983F1
:1004F0000DC0833631F0833771F0833509F05BC06E
:1005000022C0F801808189830E5F1F4F44244394E9
:10051000512C540115C03801F2E06F0E711CF80126
:10052000A080B18026FF03C0652D70E002C06FEF90
:100530007FEFC5012C870E94DF032C0183012C85EE
:100540002F77222E17C03801F2E06F0E711CF801D0
:10055000A080B18026FF03C0652D70E002C06FEF60
:100560007FEFC5012C870E94D4032C012C852068C5
:10057000222E830123FC1BC0832D90E048165906D0
:10058000B0F4B70180E290E00E94EA033A94F4CF1D
:10059000F50127FC859127FE81915F01B70190E06D
:1005A0000E94EA0331103A94F1E04F1A51084114C5
:1005B000510471F7E5C0843611F0893639F5F80138
:1005C00027FF07C060817181828193810C5F1F4F7B
:1005D00008C060817181882777FD8095982F0E5F14
:1005E0001F4F2F76B22E97FF09C09095809570957A
:1005F00061957F4F8F4F9F4F2068B22E2AE030E0E9
:10060000A4010E941C04A82EA81844C0853729F410
:100610002F7EB22E2AE030E025C0F22FF97FBF2EC8
:100620008F36C1F018F4883579F0B4C0803719F0EE
:10063000883721F0AFC02F2F2061B22EB4FE0DC03D
:100640008B2D8460B82E09C024FF0AC09F2F9660AE
:10065000B92E06C028E030E005C020E130E002C03D
:1006600020E132E0F801B7FE07C06081718182812C
:1006700093810C5F1F4F06C06081718180E090E024
:100680000E5F1F4FA4010E941C04A82EA818FB2D6A
:10069000FF77BF2EB6FE0BC02B2D2E7FA51450F476
:1006A000B4FE0AC0B2FC08C02B2D2E7E05C07A2CE9
:1006B0002B2D03C07A2C01C0752C24FF0DC0FE0128
:1006C000EA0DF11D8081803311F4297E09C022FFDB
:1006D00006C07394739404C0822F867809F07394D3
:1006E00023FD13C020FF06C05A2C731418F4530CBA
:1006F0005718732C731468F4B70180E290E02C87CC
:100700000E94EA0373942C85F5CF731410F4371804
:1007100001C0312C24FF12C0B70180E390E02C8788
:100720000E94EA032C8522FF17C021FF03C088E541
:1007300090E002C088E790E0B7010CC0822F867875
:1007400059F021FD02C080E201C08BE227FD8DE25D
:10075000B70190E00E94EA03A51438F4B70180E3E2
:1007600090E00E94EA035A94F7CFAA94F401EA0DAC
:10077000F11D8081B70190E00E94EA03A110F5CF3E
:10078000332009F451CEB70180E290E00E94EA03E1
:100790003A94F6CFF7018681978102C08FEF9FEFE1
:1007A0002C96E2E10C949604FC0105906150704097
:1007B0000110D8F7809590958E0F9F1F0895FC012A
:1007C0006150704001900110D8F7809590958E0F80
:1007D0009F1F08950F931F93CF93DF93182F092F17
:1007E000EB018B8181FD03C08FEF9FEF20C082FF63
:1007F00010C04E815F812C813D81421753077CF4EC
:10080000E881F9819F012F5F3F4F3983288310834F
:1008100006C0E885F985812F0995892B29F72E8156
:100820003F812F5F3F4F3F832E83812F902FDF919A
:10083000CF911F910F910895FA01AA27283051F105
:10084000203181F1E8946F936E7F6E5F7F4F8F4F01
:100850009F4FAF4FB1E03ED0B4E03CD0670F781F60
:10086000891F9A1FA11D680F791F8A1F911DA11D45
:100870006A0F711D811D911DA11D20D009F468947E
:100880003F912AE0269F11243019305D3193DEF626
:10089000CF010895462F4770405D4193B3E00FD0DC
:1008A000C9F7F6CF462F4F70405D4A3318F0495DC7
:1008B00031FD4052419302D0A9F7EACFB4E0A695AA
:1008C0009795879577956795BA95C9F700976105CC
:1008D000710508959B01AC010A2E06945795479522
:1008E00037952795BA95C9F7620F731F841F951F17
:1008F000A01D08952F923F924F925F926F927F9228
:100900008F929F92AF92BF92CF92DF92EF92FF921F
:100910000F931F93CF93DF93CDB7DEB7CA1BDB0BCB
:100920000FB6F894DEBF0FBECDBF09942A88398870
:1009300048885F846E847D848C849B84AA84B98477
:10094000C884DF80EE80FD800C811B81AA81B98183
:10095000CE0FD11D0FB6F894DEBF0FBECDBFED0197
:060960000895F894FFCF9A
:1009660000000001000000000000A80100000000D7
:10097600000200000000980100000000646576692E
:100986006365206E6F7420666F756E6421007468EF
:10099600652074696D652069732025643A25643A7B
:1009A60025640A0074686520646174652069732093
:1009B60025643A25643A25640A00746865207465DE
:1009C6006D70657261747572652069732025640A9D
:0209D60000001F
:00000001FF
